{
  "_format": "hh-sol-artifact-1",
  "contractName": "PledgePal",
  "sourceName": "contracts/PledgePal.sol",
  "abi": [
    {
      "inputs": [
        {
          "internalType": "bytes",
          "name": "adminProfileDetailsHash",
          "type": "bytes"
        }
      ],
      "stateMutability": "nonpayable",
      "type": "constructor"
    },
    {
      "inputs": [],
      "name": "AlreadyMember",
      "type": "error"
    },
    {
      "inputs": [],
      "name": "AmountCannotBeZero",
      "type": "error"
    },
    {
      "inputs": [],
      "name": "InvalidAmount",
      "type": "error"
    },
    {
      "inputs": [],
      "name": "InvalidProjectID",
      "type": "error"
    },
    {
      "inputs": [],
      "name": "NoProjectForAddress",
      "type": "error"
    },
    {
      "inputs": [],
      "name": "NoValidProjects",
      "type": "error"
    },
    {
      "inputs": [],
      "name": "NotADonor",
      "type": "error"
    },
    {
      "inputs": [],
      "name": "NotAMember",
      "type": "error"
    },
    {
      "inputs": [],
      "name": "NotProjectOwner",
      "type": "error"
    },
    {
      "inputs": [],
      "name": "ProjectEnded",
      "type": "error"
    },
    {
      "inputs": [],
      "name": "ProjectGoalReached",
      "type": "error"
    },
    {
      "inputs": [],
      "name": "ProjectNotEnded",
      "type": "error"
    },
    {
      "inputs": [],
      "name": "ProjectOwner",
      "type": "error"
    },
    {
      "inputs": [],
      "name": "ProjectPaused",
      "type": "error"
    },
    {
      "inputs": [],
      "name": "ReentrancyGuardReentrantCall",
      "type": "error"
    },
    {
      "inputs": [],
      "name": "ThiefDeyYourEye",
      "type": "error"
    },
    {
      "inputs": [],
      "name": "WithdrawFailed",
      "type": "error"
    },
    {
      "anonymous": false,
      "inputs": [
        {
          "indexed": false,
          "internalType": "uint256",
          "name": "amountWithdrawn",
          "type": "uint256"
        },
        {
          "indexed": false,
          "internalType": "address",
          "name": "profileOwner",
          "type": "address"
        }
      ],
      "name": "BalanceWithdrawal",
      "type": "event"
    },
    {
      "anonymous": false,
      "inputs": [
        {
          "indexed": false,
          "internalType": "uint256",
          "name": "timeRefunded",
          "type": "uint256"
        },
        {
          "indexed": false,
          "internalType": "address",
          "name": "donor",
          "type": "address"
        }
      ],
      "name": "DonationRefunded",
      "type": "event"
    },
    {
      "anonymous": false,
      "inputs": [
        {
          "indexed": false,
          "internalType": "uint256",
          "name": "dateCreated",
          "type": "uint256"
        },
        {
          "indexed": true,
          "internalType": "address",
          "name": "profile",
          "type": "address"
        }
      ],
      "name": "ProfileCreated",
      "type": "event"
    },
    {
      "anonymous": false,
      "inputs": [
        {
          "indexed": false,
          "internalType": "uint256",
          "name": "dateCreated",
          "type": "uint256"
        },
        {
          "indexed": true,
          "internalType": "address",
          "name": "projectOwner",
          "type": "address"
        }
      ],
      "name": "ProjectCreated",
      "type": "event"
    },
    {
      "anonymous": false,
      "inputs": [
        {
          "indexed": false,
          "internalType": "uint256",
          "name": "timeClaimed",
          "type": "uint256"
        },
        {
          "indexed": true,
          "internalType": "address",
          "name": "claimedBy",
          "type": "address"
        }
      ],
      "name": "ProjectFundClaimed",
      "type": "event"
    },
    {
      "anonymous": false,
      "inputs": [
        {
          "indexed": false,
          "internalType": "uint256",
          "name": "amountDonated",
          "type": "uint256"
        },
        {
          "indexed": true,
          "internalType": "address",
          "name": "projectDonor",
          "type": "address"
        },
        {
          "indexed": true,
          "internalType": "address",
          "name": "projectOwner",
          "type": "address"
        }
      ],
      "name": "ProjectFunded",
      "type": "event"
    },
    {
      "anonymous": false,
      "inputs": [
        {
          "indexed": false,
          "internalType": "uint256",
          "name": "datePaused",
          "type": "uint256"
        },
        {
          "indexed": true,
          "internalType": "address",
          "name": "projectOwner",
          "type": "address"
        }
      ],
      "name": "ProjectPaused",
      "type": "event"
    },
    {
      "inputs": [
        {
          "internalType": "address",
          "name": "_creator",
          "type": "address"
        },
        {
          "internalType": "address",
          "name": "_projectDonor",
          "type": "address"
        },
        {
          "internalType": "uint256",
          "name": "_projectID",
          "type": "uint256"
        }
      ],
      "name": "checkRefundStatus",
      "outputs": [
        {
          "internalType": "bool",
          "name": "",
          "type": "bool"
        }
      ],
      "stateMutability": "view",
      "type": "function"
    },
    {
      "inputs": [
        {
          "internalType": "address",
          "name": "_creator",
          "type": "address"
        },
        {
          "internalType": "uint256",
          "name": "_id",
          "type": "uint256"
        }
      ],
      "name": "claimProjectFunds",
      "outputs": [],
      "stateMutability": "nonpayable",
      "type": "function"
    },
    {
      "inputs": [
        {
          "internalType": "bytes",
          "name": "_profileDetailsHash",
          "type": "bytes"
        }
      ],
      "name": "createProfile",
      "outputs": [],
      "stateMutability": "nonpayable",
      "type": "function"
    },
    {
      "inputs": [
        {
          "internalType": "uint256",
          "name": "_endDate",
          "type": "uint256"
        },
        {
          "internalType": "uint256",
          "name": "_projectAmount",
          "type": "uint256"
        },
        {
          "internalType": "bytes",
          "name": "_details",
          "type": "bytes"
        }
      ],
      "name": "createProject",
      "outputs": [],
      "stateMutability": "nonpayable",
      "type": "function"
    },
    {
      "inputs": [
        {
          "internalType": "address",
          "name": "_creator",
          "type": "address"
        },
        {
          "internalType": "uint256",
          "name": "_id",
          "type": "uint256"
        }
      ],
      "name": "endProject",
      "outputs": [],
      "stateMutability": "nonpayable",
      "type": "function"
    },
    {
      "inputs": [
        {
          "internalType": "address",
          "name": "_creator",
          "type": "address"
        },
        {
          "internalType": "uint256",
          "name": "_id",
          "type": "uint256"
        }
      ],
      "name": "fundProject",
      "outputs": [],
      "stateMutability": "payable",
      "type": "function"
    },
    {
      "inputs": [
        {
          "internalType": "address",
          "name": "_creator",
          "type": "address"
        },
        {
          "internalType": "address",
          "name": "_projectDonor",
          "type": "address"
        },
        {
          "internalType": "uint256",
          "name": "_projectID",
          "type": "uint256"
        }
      ],
      "name": "getAmountDonatedToProject",
      "outputs": [
        {
          "internalType": "uint256",
          "name": "",
          "type": "uint256"
        }
      ],
      "stateMutability": "view",
      "type": "function"
    },
    {
      "inputs": [],
      "name": "getProfile",
      "outputs": [
        {
          "components": [
            {
              "internalType": "uint256",
              "name": "noOfProjectsFunded",
              "type": "uint256"
            },
            {
              "internalType": "uint256",
              "name": "noOfProjectsCreated",
              "type": "uint256"
            },
            {
              "internalType": "uint256",
              "name": "totalAmountDonated",
              "type": "uint256"
            },
            {
              "internalType": "uint256",
              "name": "dateCreated",
              "type": "uint256"
            },
            {
              "internalType": "uint256",
              "name": "profileBalance",
              "type": "uint256"
            },
            {
              "internalType": "address payable",
              "name": "profileOwner",
              "type": "address"
            },
            {
              "internalType": "bytes",
              "name": "profileDetailsHash",
              "type": "bytes"
            }
          ],
          "internalType": "struct Profile.NewProfile",
          "name": "",
          "type": "tuple"
        }
      ],
      "stateMutability": "view",
      "type": "function"
    },
    {
      "inputs": [
        {
          "internalType": "address",
          "name": "_addr",
          "type": "address"
        },
        {
          "internalType": "uint256",
          "name": "_id",
          "type": "uint256"
        }
      ],
      "name": "getProject",
      "outputs": [
        {
          "components": [
            {
              "internalType": "uint256",
              "name": "id",
              "type": "uint256"
            },
            {
              "internalType": "uint256",
              "name": "dateCreated",
              "type": "uint256"
            },
            {
              "internalType": "uint256",
              "name": "endDate",
              "type": "uint256"
            },
            {
              "internalType": "uint256",
              "name": "projectGoal",
              "type": "uint256"
            },
            {
              "internalType": "uint256",
              "name": "projectAmountRaised",
              "type": "uint256"
            },
            {
              "internalType": "enum Project.ProjectStatus",
              "name": "status",
              "type": "uint8"
            },
            {
              "internalType": "bool",
              "name": "isClaimedByAdmin",
              "type": "bool"
            },
            {
              "internalType": "bytes",
              "name": "projectDetailsHash",
              "type": "bytes"
            },
            {
              "internalType": "address",
              "name": "creator",
              "type": "address"
            },
            {
              "components": [
                {
                  "internalType": "address",
                  "name": "_addr",
                  "type": "address"
                },
                {
                  "internalType": "uint256",
                  "name": "_amount",
                  "type": "uint256"
                }
              ],
              "internalType": "struct Project.Donor[]",
              "name": "donors",
              "type": "tuple[]"
            }
          ],
          "internalType": "struct Project.NewProject_",
          "name": "_theProject",
          "type": "tuple"
        }
      ],
      "stateMutability": "view",
      "type": "function"
    },
    {
      "inputs": [
        {
          "internalType": "address",
          "name": "_addr",
          "type": "address"
        }
      ],
      "name": "getProjects",
      "outputs": [
        {
          "components": [
            {
              "internalType": "uint256",
              "name": "id",
              "type": "uint256"
            },
            {
              "internalType": "uint256",
              "name": "dateCreated",
              "type": "uint256"
            },
            {
              "internalType": "uint256",
              "name": "endDate",
              "type": "uint256"
            },
            {
              "internalType": "uint256",
              "name": "projectGoal",
              "type": "uint256"
            },
            {
              "internalType": "uint256",
              "name": "projectAmountRaised",
              "type": "uint256"
            },
            {
              "internalType": "enum Project.ProjectStatus",
              "name": "status",
              "type": "uint8"
            },
            {
              "internalType": "bool",
              "name": "isClaimedByAdmin",
              "type": "bool"
            },
            {
              "internalType": "bytes",
              "name": "projectDetailsHash",
              "type": "bytes"
            },
            {
              "internalType": "address",
              "name": "creator",
              "type": "address"
            },
            {
              "components": [
                {
                  "internalType": "address",
                  "name": "_addr",
                  "type": "address"
                },
                {
                  "internalType": "uint256",
                  "name": "_amount",
                  "type": "uint256"
                }
              ],
              "internalType": "struct Project.Donor[]",
              "name": "donors",
              "type": "tuple[]"
            }
          ],
          "internalType": "struct Project.NewProject_[]",
          "name": "_theProjects",
          "type": "tuple[]"
        }
      ],
      "stateMutability": "view",
      "type": "function"
    },
    {
      "inputs": [
        {
          "internalType": "address",
          "name": "_creator",
          "type": "address"
        },
        {
          "internalType": "uint256",
          "name": "_id",
          "type": "uint256"
        }
      ],
      "name": "getRefundFromProject",
      "outputs": [],
      "stateMutability": "nonpayable",
      "type": "function"
    },
    {
      "inputs": [
        {
          "internalType": "address",
          "name": "_creator",
          "type": "address"
        },
        {
          "internalType": "uint256",
          "name": "_id",
          "type": "uint256"
        }
      ],
      "name": "pauseProject",
      "outputs": [],
      "stateMutability": "nonpayable",
      "type": "function"
    },
    {
      "inputs": [],
      "name": "withdrawFunds",
      "outputs": [],
      "stateMutability": "nonpayable",
      "type": "function"
    }
  ],
  "bytecode": "0x60806040523480156200001157600080fd5b5060405162002e6938038062002e69833981016040819052620000349162000197565b600160005562000044816200004b565b50620003c9565b620000596001823362000091565b60405142815233907f9f150021d8fd04eb219a39e3019273bddf99a9a2e434dd2aa8132e32ea9244b09060200160405180910390a250565b6200009d838262000121565b15620000bc576040516340803a5f60e11b815260040160405180910390fd5b6001600160a01b038116600090815260208490526040902060068101620000e48482620002fd565b50600080825560018201819055600282015542600382015560050180546001600160a01b0319166001600160a01b03929092169190911790555050565b6001600160a01b038116600090815260208390526040812060030154158015906200016857506001600160a01b038281166000908152602085905260409020600501541615155b1562000177575060016200017b565b5060005b92915050565b634e487b7160e01b600052604160045260246000fd5b60006020808385031215620001ab57600080fd5b82516001600160401b0380821115620001c357600080fd5b818501915085601f830112620001d857600080fd5b815181811115620001ed57620001ed62000181565b604051601f8201601f19908116603f0116810190838211818310171562000218576200021862000181565b8160405282815288868487010111156200023157600080fd5b600093505b8284101562000255578484018601518185018701529285019262000236565b600086848301015280965050505050505092915050565b600181811c908216806200028157607f821691505b602082108103620002a257634e487b7160e01b600052602260045260246000fd5b50919050565b601f821115620002f8576000816000526020600020601f850160051c81016020861015620002d35750805b601f850160051c820191505b81811015620002f457828155600101620002df565b5050505b505050565b81516001600160401b0381111562000319576200031962000181565b62000331816200032a84546200026c565b84620002a8565b602080601f831160018114620003695760008415620003505750858301515b600019600386901b1c1916600185901b178555620002f4565b600085815260208120601f198616915b828110156200039a5788860151825594840194600190910190840162000379565b5085821015620003b95787850151600019600388901b60f8161c191681555b5050505050600190811b01905550565b612a9080620003d96000396000f3fe6080604052600436106100c25760003560e01c806395cea8471161007f578063aac7d26f11610059578063aac7d26f14610202578063d6afc9b114610232578063de7cc9df14610254578063ea51e7451461027457600080fd5b806395cea84714610187578063a13b32ce146101a7578063a41e095d146101d557600080fd5b806324600fc3146100c75780633c3436df146100de5780634491629b146100fe5780634fb49ea3146101115780637256a37a14610131578063732b521e14610167575b600080fd5b3480156100d357600080fd5b506100dc610294565b005b3480156100ea57600080fd5b506100dc6100f936600461253d565b610372565b6100dc61010c366004612596565b6103b6565b34801561011d57600080fd5b506100dc61012c366004612596565b61040a565b34801561013d57600080fd5b5061015161014c366004612596565b61045e565b60405161015e919061273f565b60405180910390f35b34801561017357600080fd5b506100dc610182366004612596565b61047b565b34801561019357600080fd5b506100dc6101a2366004612596565b6104d8565b3480156101b357600080fd5b506101c76101c2366004612752565b610519565b60405190815260200161015e565b3480156101e157600080fd5b506101f56101f036600461278e565b610532565b60405161015e91906127a9565b34801561020e57600080fd5b5061022261021d366004612752565b61053f565b604051901515815260200161015e565b34801561023e57600080fd5b5061024761054e565b60405161015e919061280d565b34801561026057600080fd5b506100dc61026f36600461286d565b610566565b34801561028057600080fd5b506100dc61028f366004612596565b6105b0565b61029c6105bd565b33600081815260016020819052604090912060040154916102bd91906105e7565b604051600090339083908381818185875af1925050503d80600081146102ff576040519150601f19603f3d011682016040523d82523d6000602084013e610304565b606091505b509091505080151560000361032c57604051631d42c86760e21b815260040160405180910390fd5b604080518381523360208201527f3e67d2fc0640452bed7b3b9295e4ca57748cb9bd816a6720e7a9efdaddff3c05910160405180910390a150506103706001600055565b565b61037e60018233610631565b60405142815233907f9f150021d8fd04eb219a39e3019273bddf99a9a2e434dd2aa8132e32ea9244b09060200160405180910390a250565b6103c660026001833433876106bc565b6040513481526001600160a01b0383169033907f27f2e043f3731977cdaceec6fb5476cb822d7b8d873e4b16280e57fc81674d5e9060200160405180910390a35050565b6104176002833384610b9b565b816001600160a01b03167f2e28bd00cd792f491a5a6a24846dd4061358a76c0162e063bda0017197403abd4260405161045291815260200190565b60405180910390a25050565b6104666123e5565b61047260028484610c83565b90505b92915050565b6104836105bd565b61049260026001843385611295565b604080514281523360208201527f9a9d4b2133b6673545e167237cbd0607748ce23df24ff22368225c6584c3d390910160405180910390a16104d46001600055565b5050565b6104e7600260018433856113e4565b60405142815233907fc4c4b67b5cec206c17cc01ebe7b85cbff83d6ef4bf3d57c2c3e1610e14db1c3a90602001610452565b60006105286002858585611641565b90505b9392505050565b606061047560028361169e565b60006105286002858585611cd8565b610556612454565b610561600133611d38565b905090565b6105766002600185858533611e44565b60405142815233907f63c92f9505d420bff631cb9df33be952bdc11e2118da36a850b43e6bcc4ce4de9060200160405180910390a2505050565b6104176002833384611f43565b6002600054036105e057604051633ee5aeb560e01b815260040160405180910390fd5b6002600055565b6105f1828261202b565b1515600003610613576040516305031d1160e31b815260040160405180910390fd5b6001600160a01b031660009081526020919091526040812060040155565b61063b838261202b565b15610659576040516340803a5f60e11b815260040160405180910390fd5b6001600160a01b03811660009081526020849052604090206006810161067f8482612948565b50600080825560018201819055600282015542600382015560050180546001600160a01b0319166001600160a01b03929092169190911790555050565b85818386816001600160a01b0316846000856001600160a01b03166001600160a01b0316815260200190815260200160002082815481106106ff576106ff612a08565b600091825260209091206007600b9092020101546001600160a01b03160361073a576040516304235be560e21b815260040160405180910390fd5b8886610746828261202b565b610763576040516305031d1160e31b815260040160405180910390fd5b61076e8c888c612087565b15156001036107905760405163b946329760e01b815260040160405180910390fd5b61079b8c888c6120f4565b15156001036107bd5760405163ddadea0960e01b815260040160405180910390fd5b6001600160a01b038716600090815260208d90526040812080548c9081106107e7576107e7612a08565b90600052602060002090600b02016001015410156108185760405163a0c0454960e01b815260040160405180910390fd5b600189101561083a5760405163162908e360e11b815260040160405180910390fd5b60006108488d898b8e611641565b116108bf576108578b896120fd565b6001600160a01b038716600090815260208d90526040902080548b90811061088157610881612a08565b60009182526020808320600b92909202909101600801805460018101825590835291200180546001600160a01b0319166001600160a01b038a161790555b6001600160a01b038716600090815260208d90526040902080548b9081106108e9576108e9612a08565b90600052602060002090600b020160030154898d60008a6001600160a01b03166001600160a01b031681526020019081526020016000208c8154811061093157610931612a08565b90600052602060002090600b02016004015461094d9190612a34565b1115610abd576001600160a01b038716600090815260208d90526040812080548c90811061097d5761097d612a08565b90600052602060002090600b0201600301548a8e60008b6001600160a01b03166001600160a01b031681526020019081526020016000208d815481106109c5576109c5612a08565b90600052602060002090600b0201600401546109e19190612a34565b6109eb9190612a47565b6001600160a01b038916600090815260208f9052604090208054919250908c908110610a1957610a19612a08565b90600052602060002090600b0201600301548d60008a6001600160a01b03166001600160a01b031681526020019081526020016000208c81548110610a6057610a60612a08565b90600052602060002090600b020160040181905550610a808c828b61212f565b610a948c8a610a8f848e612a47565b612164565b610aac8d898b8e858f610aa79190612a47565b61218f565b610ab78d898d61220b565b50610b28565b6001600160a01b038716600090815260208d90526040902080548a91908c908110610aea57610aea612a08565b90600052602060002090600b02016004016000828254610b0a9190612a34565b90915550610b1b90508b898b612164565b610b288c888a8d8d61218f565b6001600160a01b038716600090815260208d90526040812080548c908110610b5257610b52612a08565b600091825260208083206001600160a01b03909c168352600a600b909202909b01019099526040909820805498151560ff19909916989098179097555050505050505050505050565b83838383816001600160a01b0316846000856001600160a01b03166001600160a01b031681526020019081526020016000208281548110610bde57610bde612a08565b600091825260209091206007600b9092020101546001600160a01b031614610c1957604051637c2411e960e01b815260040160405180910390fd5b6001600160a01b038716600090815260208990526040902080546002919087908110610c4757610c47612a08565b600091825260209091206005600b9092020101805460ff19166001836002811115610c7457610c746125c0565b02179055505050505050505050565b610c8b6123e5565b6001600160a01b0383166000908152602085905260409020546001811015610cc65760405163e622933560e01b815260040160405180910390fd5b610cce6123e5565b60005b8281101561128b576001600160a01b0386166000908152602088905260409020805486919083908110610d0657610d06612a08565b90600052602060002090600b02016000015403611283576001600160a01b0386166000908152602088905260408120805483908110610d4757610d47612a08565b90600052602060002090600b02016008018054905067ffffffffffffffff811115610d7457610d7461249a565b604051908082528060200260200182016040528015610db957816020015b6040805180820190915260008082526020820152815260200190600190039081610d925790505b50905060005b6001600160a01b038816600090815260208a905260409020805484908110610de957610de9612a08565b90600052602060002090600b020160080180549050811015610f58576040805180820182526001600160a01b038a16600090815260208c9052918220805482919087908110610e3a57610e3a612a08565b90600052602060002090600b02016008018481548110610e5c57610e5c612a08565b60009182526020808320909101546001600160a01b0390811684528d1682528d815260409091208054929091019187908110610e9a57610e9a612a08565b90600052602060002090600b020160090160008d60008e6001600160a01b03166001600160a01b031681526020019081526020016000208881548110610ee257610ee2612a08565b90600052602060002090600b02016008018681548110610f0457610f04612a08565b60009182526020808320909101546001600160a01b03168352820192909252604001902054905283519091508190849084908110610f4457610f44612a08565b602090810291909101015250600101610dbf565b506001600160a01b0387166000908152602089905260409020805483908110610f8357610f83612a08565b60009182526020808320600b9092029091015485526001600160a01b038916825289905260409020805483908110610fbd57610fbd612a08565b600091825260208083206001600b909302019190910154858201526001600160a01b038916825289905260409020805483908110610ffd57610ffd612a08565b90600052602060002090600b020160020154836040018181525050876000886001600160a01b03166001600160a01b03168152602001908152602001600020828154811061104d5761104d612a08565b600091825260208083206003600b90930201919091015460608601526001600160a01b03891682528990526040902080548390811061108e5761108e612a08565b600091825260208083206004600b90930201919091015460808601526001600160a01b0389168252899052604090208054839081106110cf576110cf612a08565b600091825260209091206005600b90920201015460a084019060ff1660028111156110fc576110fc6125c0565b9081600281111561110f5761110f6125c0565b9052506001600160a01b038716600090815260208990526040902080548390811061113c5761113c612a08565b60009182526020808320600b9290920290910160050154610100900460ff16151560c08601526001600160a01b03891682528990526040902080548390811061118757611187612a08565b90600052602060002090600b020160060180546111a3906128bd565b80601f01602080910402602001604051908101604052809291908181526020018280546111cf906128bd565b801561121c5780601f106111f15761010080835404028352916020019161121c565b820191906000526020600020905b8154815290600101906020018083116111ff57829003601f168201915b505050505060e08401526001600160a01b038716600090815260208990526040902080548390811061125057611250612a08565b600091825260209091206007600b9092020101546001600160a01b031661010084015261012083015250915061052b9050565b600101610cd1565b5050509392505050565b60026112a2868584612270565b60028111156112b3576112b36125c0565b146112d1576040516306e888b560e11b815260040160405180910390fd5b6112dc858483612320565b15156001036112fe5760405163325afbdf60e11b815260040160405180910390fd5b600061130c86858585611641565b1161132a57604051634862d81360e01b815260040160405180910390fd5b61133685848484611cd8565b151560010361135857604051634891ed3360e11b815260040160405180910390fd5b600061136686858585611641565b905061137385828561212f565b6001600160a01b0384166000908152602087905260409020805460019190849081106113a1576113a1612a08565b600091825260208083206001600160a01b039097168352600a600b909202909601019094526040909320805493151560ff19909416939093179092555050505050565b84838383816001600160a01b0316846000856001600160a01b03166001600160a01b03168152602001908152602001600020828154811061142757611427612a08565b600091825260209091206007600b9092020101546001600160a01b03161461146257604051637c2411e960e01b815260040160405180910390fd5b61146d898887612087565b151560000361148f576040516306e888b560e11b815260040160405180910390fd5b61149a898887612320565b15156000036114bc576040516306e888b560e11b815260040160405180910390fd5b6001600160a01b038716600090815260208a9052604090208054869081106114e6576114e6612a08565b60009182526020909120600b9091020160050154610100900460ff16151560010361152457604051634891ed3360e11b815260040160405180910390fd5b6001600160a01b038716600090815260208a90526040812080548790811061154e5761154e612a08565b90600052602060002090600b0201600401549050600081116115835760405163162908e360e11b815260040160405180910390fd5b6115df89828c60008c6001600160a01b03166001600160a01b0316815260200190815260200160002089815481106115bd576115bd612a08565b600091825260209091206007600b9092020101546001600160a01b031661212f565b6001600160a01b038816600090815260208b9052604090208054600191908890811061160d5761160d612a08565b90600052602060002090600b020160050160016101000a81548160ff02191690831515021790555050505050505050505050565b6001600160a01b038316600090815260208590526040812080548390811061166b5761166b612a08565b600091825260208083206001600160a01b03871684526009600b9093020191909101905260409020549050949350505050565b6001600160a01b03811660009081526020839052604090205460609060018110156116dc5760405163dba985e960e01b815260040160405180910390fd5b60008167ffffffffffffffff8111156116f7576116f761249a565b60405190808252806020026020018201604052801561173057816020015b61171d6123e5565b8152602001906001900390816117155790505b50905060005b82811015611ccf576117466123e5565b6001600160a01b038616600090815260208890526040812080548490811061177057611770612a08565b90600052602060002090600b02016008018054905067ffffffffffffffff81111561179d5761179d61249a565b6040519080825280602002602001820160405280156117e257816020015b60408051808201909152600080825260208201528152602001906001900390816117bb5790505b50905060005b6001600160a01b038816600090815260208a90526040902080548590811061181257611812612a08565b90600052602060002090600b020160080180549050811015611981576040805180820182526001600160a01b038a16600090815260208c905291822080548291908890811061186357611863612a08565b90600052602060002090600b0201600801848154811061188557611885612a08565b60009182526020808320909101546001600160a01b0390811684528d1682528d8152604090912080549290910191889081106118c3576118c3612a08565b90600052602060002090600b020160090160008d60008e6001600160a01b03166001600160a01b03168152602001908152602001600020898154811061190b5761190b612a08565b90600052602060002090600b0201600801868154811061192d5761192d612a08565b60009182526020808320909101546001600160a01b0316835282019290925260400190205490528351909150819084908490811061196d5761196d612a08565b6020908102919091010152506001016117e8565b506001600160a01b03871660009081526020899052604090208054849081106119ac576119ac612a08565b60009182526020808320600b9092029091015484526001600160a01b0389168252899052604090208054849081106119e6576119e6612a08565b600091825260208083206001600b909302019190910154848201526001600160a01b038916825289905260409020805484908110611a2657611a26612a08565b90600052602060002090600b020160020154826040018181525050876000886001600160a01b03166001600160a01b031681526020019081526020016000208381548110611a7657611a76612a08565b600091825260208083206003600b90930201919091015460608501526001600160a01b038916825289905260409020805484908110611ab757611ab7612a08565b600091825260208083206004600b90930201919091015460808501526001600160a01b038916825289905260409020805484908110611af857611af8612a08565b600091825260209091206005600b90920201015460a083019060ff166002811115611b2557611b256125c0565b90816002811115611b3857611b386125c0565b9052506001600160a01b0387166000908152602089905260409020805484908110611b6557611b65612a08565b60009182526020808320600b9290920290910160050154610100900460ff16151560c08501526001600160a01b038916825289905260409020805484908110611bb057611bb0612a08565b90600052602060002090600b02016006018054611bcc906128bd565b80601f0160208091040260200160405190810160405280929190818152602001828054611bf8906128bd565b8015611c455780601f10611c1a57610100808354040283529160200191611c45565b820191906000526020600020905b815481529060010190602001808311611c2857829003601f168201915b505050505060e08301526001600160a01b0387166000908152602089905260409020805484908110611c7957611c79612a08565b600091825260209091206007600b9092020101546001600160a01b0316610100830152610120820181905283518290859085908110611cba57611cba612a08565b60209081029190910101525050600101611736565b50949350505050565b6001600160a01b0383166000908152602085905260408120805483908110611d0257611d02612a08565b600091825260208083206001600160a01b0387168452600a600b90930201919091019052604090205460ff169050949350505050565b611d40612454565b6040805160e0810182526001600160a01b0380851660008181526020888152858220805486526001810154828701526002810154968601969096526003860154606086015260048601546080860152600586015490931660a0850152908152908690526006909201805460c083019190611db9906128bd565b80601f0160208091040260200160405190810160405280929190818152602001828054611de5906128bd565b8015611e325780601f10611e0757610100808354040283529160200191611e32565b820191906000526020600020905b815481529060010190602001808311611e1557829003601f168201915b50505091909252509095945050505050565b8481611e50828261202b565b611e6d576040516305031d1160e31b815260040160405180910390fd5b60008511611e8e5760405163d11b25af60e01b815260040160405180910390fd5b6001600160a01b038316600081815260208a9052604081208054600181018083559383529283908110611ec357611ec3612a08565b600091825260208220600b9190910201838155426001820155600281018a905560038101899055600481019190915560058101805461ffff19169055905060068101611f0f8782612948565b506007810180546001600160a01b0319166001600160a01b038716179055611f3789866123ad565b50505050505050505050565b83838383816001600160a01b0316846000856001600160a01b03166001600160a01b031681526020019081526020016000208281548110611f8657611f86612a08565b600091825260209091206007600b9092020101546001600160a01b031614611fc157604051637c2411e960e01b815260040160405180910390fd5b6002611fce898988612270565b6002811115611fdf57611fdf6125c0565b03611ffd5760405163b946329760e01b815260040160405180910390fd5b6001600160a01b038716600090815260208990526040902080546001919087908110610c4757610c47612a08565b6001600160a01b0381166000908152602083905260408120600301541580159061207157506001600160a01b038281166000908152602085905260409020600501541615155b1561207e57506001610475565b50600092915050565b600060025b6001600160a01b03841660009081526020869052604090208054849081106120b6576120b6612a08565b600091825260209091206005600b90920201015460ff1660028111156120de576120de6125c0565b146120ea576000610528565b5060019392505050565b6000600161208c565b6001600160a01b0381166000908152602083905260408120805460019290612126908490612a34565b90915550505050565b6001600160a01b0381166000908152602084905260408120600401805484929061215a908490612a34565b9091555050505050565b6001600160a01b0382166000908152602084905260408120600201805483929061215a908490612a34565b6001600160a01b03841660009081526020869052604090208054829190849081106121bc576121bc612a08565b90600052602060002090600b02016009016000856001600160a01b03166001600160a01b0316815260200190815260200160002060008282546121ff9190612a34565b90915550505050505050565b6001600160a01b03821660009081526020849052604090208054600291908390811061223957612239612a08565b600091825260209091206005600b9092020101805460ff19166001836002811115612266576122666125c0565b0217905550505050565b6001600160a01b038216600090815260208490526040812080544291908490811061229d5761229d612a08565b90600052602060002090600b02016002015410806122c757506122c1848484612320565b15156001145b156122d7576122d784848461220b565b6001600160a01b038316600090815260208590526040902080548390811061230157612301612a08565b60009182526020909120600b909102016005015460ff16949350505050565b6001600160a01b038216600090815260208490526040812080548390811061234a5761234a612a08565b90600052602060002090600b020160030154846000856001600160a01b03166001600160a01b03168152602001908152602001600020838154811061239157612391612a08565b90600052602060002090600b0201600401541490509392505050565b6001826000836001600160a01b03166001600160a01b0316815260200190815260200160002060010160008282546121269190612a34565b604051806101400160405280600081526020016000815260200160008152602001600081526020016000815260200160006002811115612427576124276125c0565b81526020016000151581526020016060815260200160006001600160a01b03168152602001606081525090565b6040518060e00160405280600081526020016000815260200160008152602001600081526020016000815260200160006001600160a01b03168152602001606081525090565b634e487b7160e01b600052604160045260246000fd5b600082601f8301126124c157600080fd5b813567ffffffffffffffff808211156124dc576124dc61249a565b604051601f8301601f19908116603f011681019082821181831017156125045761250461249a565b8160405283815286602085880101111561251d57600080fd5b836020870160208301376000602085830101528094505050505092915050565b60006020828403121561254f57600080fd5b813567ffffffffffffffff81111561256657600080fd5b612572848285016124b0565b949350505050565b80356001600160a01b038116811461259157600080fd5b919050565b600080604083850312156125a957600080fd5b6125b28361257a565b946020939093013593505050565b634e487b7160e01b600052602160045260246000fd5b600381106125f457634e487b7160e01b600052602160045260246000fd5b9052565b6000815180845260005b8181101561261e57602081850181015186830182015201612602565b506000602082860101526020601f19601f83011685010191505092915050565b60008151808452602080850194506020840160005b8381101561268357815180516001600160a01b031688528301518388015260409096019590820190600101612653565b509495945050505050565b6000610140825184526020830151602085015260408301516040850152606083015160608501526080830151608085015260a08301516126d160a08601826125d6565b5060c08301516126e560c086018215159052565b5060e08301518160e08601526126fd828601826125f8565b9150506101008084015161271b828701826001600160a01b03169052565b50506101208084015185830382870152612735838261263e565b9695505050505050565b602081526000610472602083018461268e565b60008060006060848603121561276757600080fd5b6127708461257a565b925061277e6020850161257a565b9150604084013590509250925092565b6000602082840312156127a057600080fd5b6104728261257a565b600060208083016020845280855180835260408601915060408160051b87010192506020870160005b8281101561280057603f198886030184526127ee85835161268e565b945092850192908501906001016127d2565b5092979650505050505050565b6020815281516020820152602082015160408201526040820151606082015260608201516080820152608082015160a082015260018060a01b0360a08301511660c0820152600060c083015160e0808401526125726101008401826125f8565b60008060006060848603121561288257600080fd5b8335925060208401359150604084013567ffffffffffffffff8111156128a757600080fd5b6128b3868287016124b0565b9150509250925092565b600181811c908216806128d157607f821691505b6020821081036128f157634e487b7160e01b600052602260045260246000fd5b50919050565b601f821115612943576000816000526020600020601f850160051c810160208610156129205750805b601f850160051c820191505b8181101561293f5782815560010161292c565b5050505b505050565b815167ffffffffffffffff8111156129625761296261249a565b6129768161297084546128bd565b846128f7565b602080601f8311600181146129ab57600084156129935750858301515b600019600386901b1c1916600185901b17855561293f565b600085815260208120601f198616915b828110156129da578886015182559484019460019091019084016129bb565b50858210156129f85787850151600019600388901b60f8161c191681555b5050505050600190811b01905550565b634e487b7160e01b600052603260045260246000fd5b634e487b7160e01b600052601160045260246000fd5b8082018082111561047557610475612a1e565b8181038181111561047557610475612a1e56fea26469706673582212209acdf183b5cc9d4f5fa9888771c7c10ad3e5ca22c41f560aff8a4492889b08be64736f6c63430008180033",
  "linkReferences": {},
  "deployedLinkReferences": {}
}